{
    "contractName": "EmployeeStockOptionPlan",
    "abi": [
        {
            "anonymous": false,
            "inputs": [
                {
                    "indexed": true,
                    "internalType": "address",
                    "name": "previousOwner",
                    "type": "address"
                },
                {
                    "indexed": true,
                    "internalType": "address",
                    "name": "newOwner",
                    "type": "address"
                }
            ],
            "name": "OwnershipTransferred",
            "type": "event"
        },
        {
            "anonymous": false,
            "inputs": [
                {
                    "indexed": false,
                    "internalType": "address",
                    "name": "employee",
                    "type": "address"
                },
                {
                    "indexed": false,
                    "internalType": "uint256",
                    "name": "stockOptionsAmount",
                    "type": "uint256"
                }
            ],
            "name": "StockOptionsGranted",
            "type": "event"
        },
        {
            "inputs": [
                {
                    "internalType": "address",
                    "name": "_employeeAddress",
                    "type": "address"
                }
            ],
            "name": "addEmployee",
            "outputs": [],
            "stateMutability": "nonpayable",
            "type": "function"
        },
        {
            "inputs": [
                {
                    "internalType": "address",
                    "name": "",
                    "type": "address"
                }
            ],
            "name": "employee",
            "outputs": [
                {
                    "internalType": "uint256",
                    "name": "stockOptions",
                    "type": "uint256"
                },
                {
                    "internalType": "uint256",
                    "name": "vestingSchedule",
                    "type": "uint256"
                }
            ],
            "stateMutability": "view",
            "type": "function"
        },
        {
            "inputs": [],
            "name": "exerciseOptions",
            "outputs": [],
            "stateMutability": "nonpayable",
            "type": "function"
        },
        {
            "inputs": [],
            "name": "getBlockTimeStamp",
            "outputs": [
                {
                    "internalType": "uint256",
                    "name": "",
                    "type": "uint256"
                }
            ],
            "stateMutability": "view",
            "type": "function"
        },
        {
            "inputs": [
                {
                    "internalType": "address",
                    "name": "_employeeAddress",
                    "type": "address"
                }
            ],
            "name": "getExcercisedOptions",
            "outputs": [
                {
                    "internalType": "uint256",
                    "name": "",
                    "type": "uint256"
                }
            ],
            "stateMutability": "view",
            "type": "function"
        },
        {
            "inputs": [
                {
                    "internalType": "address",
                    "name": "_employeeAddress",
                    "type": "address"
                }
            ],
            "name": "getVestedOptions",
            "outputs": [
                {
                    "internalType": "uint256",
                    "name": "",
                    "type": "uint256"
                }
            ],
            "stateMutability": "view",
            "type": "function"
        },
        {
            "inputs": [
                {
                    "internalType": "address",
                    "name": "_employeeAddress",
                    "type": "address"
                },
                {
                    "internalType": "uint256",
                    "name": "_stockOptions",
                    "type": "uint256"
                }
            ],
            "name": "grantStockOptions",
            "outputs": [],
            "stateMutability": "nonpayable",
            "type": "function"
        },
        {
            "inputs": [],
            "name": "owner",
            "outputs": [
                {
                    "internalType": "address",
                    "name": "",
                    "type": "address"
                }
            ],
            "stateMutability": "view",
            "type": "function"
        },
        {
            "inputs": [],
            "name": "renounceOwnership",
            "outputs": [],
            "stateMutability": "nonpayable",
            "type": "function"
        },
        {
            "inputs": [
                {
                    "internalType": "address",
                    "name": "_employeeAddress",
                    "type": "address"
                },
                {
                    "internalType": "uint256",
                    "name": "_vestingSchedule",
                    "type": "uint256"
                }
            ],
            "name": "setVestingSchedule",
            "outputs": [],
            "stateMutability": "nonpayable",
            "type": "function"
        },
        {
            "inputs": [
                {
                    "internalType": "address",
                    "name": "_recipient",
                    "type": "address"
                },
                {
                    "internalType": "uint256",
                    "name": "_stockOptionsAmount",
                    "type": "uint256"
                }
            ],
            "name": "transferOptions",
            "outputs": [],
            "stateMutability": "nonpayable",
            "type": "function"
        },
        {
            "inputs": [
                {
                    "internalType": "address",
                    "name": "newOwner",
                    "type": "address"
                }
            ],
            "name": "transferOwnership",
            "outputs": [],
            "stateMutability": "nonpayable",
            "type": "function"
        },
        {
            "inputs": [],
            "name": "vestOptions",
            "outputs": [],
            "stateMutability": "nonpayable",
            "type": "function"
        },
        {
            "inputs": [
                {
                    "internalType": "address",
                    "name": "_employeeAddress",
                    "type": "address"
                }
            ],
            "name": "vestingCountdown",
            "outputs": [
                {
                    "internalType": "uint256",
                    "name": "",
                    "type": "uint256"
                }
            ],
            "stateMutability": "view",
            "type": "function"
        }
    ],
    "bytecode": "608060405234801561001057600080fd5b5061001a33610023565b60018055610073565b600080546001600160a01b038381166001600160a01b0319831681178455604051919092169283917f8be0079c531659141344cd1fd0a4f28419497f9722a3daafe3b4186f6b6457e09190a35050565b610d5f806100826000396000f3fe608060405234801561001057600080fd5b50600436106100ea5760003560e01c8063851492581161008c578063a2c9a62911610066578063a2c9a62914610209578063ca49a54314610211578063f2fde38b14610217578063f3cb8c311461022a57600080fd5b806385149258146101d35780638da5cb5b146101db578063a09da445146101f657600080fd5b80633590accf116100c85780633590accf146101665780636cabbe1614610179578063715018a6146101a257806376048b83146101aa57600080fd5b806309d495fd146100ef5780630fe5300b14610130578063180711ba14610145575b600080fd5b6101166100fd366004610c35565b6002602052600090815260409020805460019091015482565b604080519283526020830191909152015b60405180910390f35b61014361013e366004610c57565b61023d565b005b610158610153366004610c35565b6103e2565b604051908152602001610127565b610143610174366004610c57565b6104a0565b610158610187366004610c35565b6001600160a01b031660009081526003602052604090205490565b6101436105f1565b6101586101b8366004610c35565b6001600160a01b031660009081526004602052604090205490565b610143610627565b6000546040516001600160a01b039091168152602001610127565b610143610204366004610c57565b610735565b610143610897565b42610158565b610143610225366004610c35565b610961565b610143610238366004610c35565b6109fc565b600081116102a25760405162461bcd60e51b815260206004820152602760248201527f73746f636b206f7074696f6e73206d7573742062652067726561746572207468604482015266616e207a65726f60c81b60648201526084015b60405180910390fd5b336000908152600260205260409020546102fe5760405162461bcd60e51b815260206004820152601760248201527f456d706c6f79656520646f6573206e6f742065786973740000000000000000006044820152606401610299565b3360009081526004602052604090205481111561036f5760405162461bcd60e51b815260206004820152602960248201527f456d706c6f7965652068617320696e73756666696369656e742076657374696e604482015268672062616c616e636560b81b6064820152608401610299565b336000908152600260205260409020541561038d5761038d33610a83565b33600090815260046020526040812080548392906103ac908490610c97565b90915550506001600160a01b038216600090815260046020526040812080548392906103d9908490610caa565b90915550505050565b6001600160a01b0381166000908152600260205260408120546104405760405162461bcd60e51b8152602060048201526016602482015275115b5c1b1bde595948191bd95cdb89dd08195e1a5cdd60521b6044820152606401610299565b6001600160a01b038216600090815260026020526040812060010154610467904290610c97565b1161047357600061049a565b6001600160a01b03821660009081526002602052604090206001015461049a904290610c97565b92915050565b6000546001600160a01b031633146104ca5760405162461bcd60e51b815260040161029990610cbd565b6002600154036104ec5760405162461bcd60e51b815260040161029990610cf2565b600260015542811161054f5760405162461bcd60e51b815260206004820152602660248201527f76657374696e67207363686564756c65206d75737420626520696e207468652060448201526566757475726560d01b6064820152608401610299565b6001600160a01b0382166000908152600260205260409020546105ad5760405162461bcd60e51b8152602060048201526016602482015275115b5c1b1bde595948191bd95cdb89dd08195e1a5cdd60521b6044820152606401610299565b33600090815260026020526040902054156105cb576105cb33610a83565b6001600160a01b0390911660009081526002602052604090206001908101919091558055565b6000546001600160a01b0316331461061b5760405162461bcd60e51b815260040161029990610cbd565b6106256000610bc9565b565b6002600154036106495760405162461bcd60e51b815260040161029990610cf2565b6002600155336000908152600460205260409020546106de5760405162461bcd60e51b8152602060048201526044602482018190527f456d706c6f7965652076657374696e672042616c616e6365206973206c657373908201527f207468616e207a65726f206f7220656d706c6f79656520646f65736e277420656064820152631e1a5cdd60e21b608482015260a401610299565b3360009081526004602090815260408083205460039092528220805491929091610709908490610caa565b909155505033600090815260046020526040812080549161072a8380610c97565b909155505060018055565b6000546001600160a01b0316331461075f5760405162461bcd60e51b815260040161029990610cbd565b6002600154036107815760405162461bcd60e51b815260040161029990610cf2565b60026001556001600160a01b0382166107dc5760405162461bcd60e51b815260206004820152601860248201527f496e76616c696420656d706c6f796565206164647265737300000000000000006044820152606401610299565b6001600160a01b03821660009081526002602052604081208054839290610804908490610caa565b90915550506001600160a01b038216600090815260026020526040812060010154900361084d576001600160a01b03821660009081526002602052604090206000196001909101555b604080516001600160a01b0384168152602081018390527fdf372a90c395fd9f7b9e5eff63962ad3dc36e9f4ae38073d200ba3e10dbf853c910160405180910390a1505060018055565b6002600154036108b95760405162461bcd60e51b815260040161029990610cf2565b6002600181905533600090815260209190915260409020546109525760405162461bcd60e51b815260206004820152604660248201527f54686973207573657220646f6573206e6f7420657869737473206f722054686960448201527f7320456d706c6f79656520646f6573206e6f7420686176652073746f636b206f6064820152657074696f6e7360d01b608482015260a401610299565b61095b33610a83565b60018055565b6000546001600160a01b0316331461098b5760405162461bcd60e51b815260040161029990610cbd565b6001600160a01b0381166109f05760405162461bcd60e51b815260206004820152602660248201527f4f776e61626c653a206e6577206f776e657220697320746865207a65726f206160448201526564647265737360d01b6064820152608401610299565b6109f981610bc9565b50565b6000546001600160a01b03163314610a265760405162461bcd60e51b815260040161029990610cbd565b600260015403610a485760405162461bcd60e51b815260040161029990610cf2565b604080518082018252600080825260208083018281526001600160a01b03909516825260029052919091209051815590516001918201558055565b6001600160a01b038116600090815260026020526040902060019081015401610af85760405162461bcd60e51b815260206004820152602160248201527f56657374696e67207363686564756c652069732079657420746f2062652073656044820152601d60fa1b6064820152608401610299565b6001600160a01b0381166000908152600260205260409020600101544211156109f9576001600160a01b03811660009081526002602090815260408083205460049092528220805491929091610b4f908490610caa565b90915550506001600160a01b03811660009081526002602052604080822054338352908220805491929091610b85908490610c97565b90915550506001600160a01b03811660009081526002602052604080822060019081015433845291832001805491929091610bc1908490610c97565b909155505050565b600080546001600160a01b038381166001600160a01b0319831681178455604051919092169283917f8be0079c531659141344cd1fd0a4f28419497f9722a3daafe3b4186f6b6457e09190a35050565b80356001600160a01b0381168114610c3057600080fd5b919050565b600060208284031215610c4757600080fd5b610c5082610c19565b9392505050565b60008060408385031215610c6a57600080fd5b610c7383610c19565b946020939093013593505050565b634e487b7160e01b600052601160045260246000fd5b8181038181111561049a5761049a610c81565b8082018082111561049a5761049a610c81565b6020808252818101527f4f776e61626c653a2063616c6c6572206973206e6f7420746865206f776e6572604082015260600190565b6020808252601f908201527f5265656e7472616e637947756172643a207265656e7472616e742063616c6c0060408201526060019056fea264697066735822122021e98707848d2b3f9efb15087c84ff5f12cd6fa172e2ae30b675865d1f4a53f364736f6c63430008130033",
    "sourcePath": "c:/Users/kolad/Desktop/periwnkl.co/stockoptions/contracts/stockOptionsTemplate.sol",
    "compiler": {
        "name": "solc",
        "version": "0.8.19+commit.7dd6d404"
    },
    "functionHashes": {
        "addEmployee(address)": "f3cb8c31",
        "employee(address)": "09d495fd",
        "exerciseOptions()": "85149258",
        "getBlockTimeStamp()": "ca49a543",
        "getExcercisedOptions(address)": "6cabbe16",
        "getVestedOptions(address)": "76048b83",
        "grantStockOptions(address,uint256)": "a09da445",
        "owner()": "8da5cb5b",
        "renounceOwnership()": "715018a6",
        "setVestingSchedule(address,uint256)": "3590accf",
        "transferOptions(address,uint256)": "0fe5300b",
        "transferOwnership(address)": "f2fde38b",
        "vestOptions()": "a2c9a629",
        "vestingCountdown(address)": "180711ba"
    },
    "gasEstimates": {
        "creation": {
            "codeDepositCost": "684600",
            "executionCost": "48662",
            "totalCost": "733262"
        },
        "external": {
            "addEmployee(address)": "36939",
            "employee(address)": "4671",
            "exerciseOptions()": "infinite",
            "getBlockTimeStamp()": "235",
            "getExcercisedOptions(address)": "2582",
            "getVestedOptions(address)": "2626",
            "grantStockOptions(address,uint256)": "99070",
            "owner()": "2346",
            "renounceOwnership()": "28181",
            "setVestingSchedule(address,uint256)": "infinite",
            "transferOptions(address,uint256)": "infinite",
            "transferOwnership(address)": "28375",
            "vestOptions()": "infinite",
            "vestingCountdown(address)": "infinite"
        },
        "internal": {
            "_vest(address)": "infinite"
        }
    }
}